{
  "mode": "nondeterministic",
  "source_hash": "e418e93f4b5d09a5d74d3312716b01cdeac42ac02959f6cca9ae5793017f767c",
  "outputs": [
    "Transaction Details: Transaction {\n    version: Version(\n        2,\n    ),\n    lock_time: 0 blocks,\n    input: [\n        TxIn {\n            previous_output: OutPoint {\n                txid: 0000000000000000000000000000000000000000000000000000000000000000,\n                vout: 0,\n            },\n            script_sig: Script(),\n            sequence: Sequence(0xfffffffd),\n            witness: Witness: {\n                indices: 1,\n                indices_start: 66,\n                witnesses: [\n                    [0x56, 0x5a, 0x42, 0x48, 0xe1, 0xa0, 0x47, 0xc6, 0x29, 0xe4, 0x44, 0x5b, 0x21, 0x6d, 0xab, 0xaf, 0x2b, 0x78, 0x4a, 0xc0, 0x5b, 0xa0, 0xb3, 0x59, 0xc8, 0x70, 0xe9, 0x12, 0x1c, 0x06, 0x76, 0x56, 0x19, 0xe5, 0x72, 0x98, 0x11, 0x4c, 0x98, 0x90, 0x05, 0xea, 0x6b, 0x22, 0x0e, 0x8d, 0x93, 0xc4, 0x4a, 0x51, 0xae, 0xdf, 0x67, 0x6d, 0x72, 0x1a, 0xbb, 0xa1, 0xd9, 0x53, 0x8b, 0xe6, 0xdb, 0xc0, 0x01],\n                ],\n            }\n            ,\n        },\n        TxIn {\n            previous_output: OutPoint {\n                txid: 0000000000000000000000000000000000000000000000000000000000000000,\n                vout: 1,\n            },\n            script_sig: Script(),\n            sequence: Sequence(0xfffffffd),\n            witness: Witness: {\n                indices: 1,\n                indices_start: 66,\n                witnesses: [\n                    [0x2d, 0x3b, 0xd1, 0xfd, 0x04, 0xd6, 0x8a, 0xb0, 0x09, 0x2d, 0x12, 0xc7, 0x4f, 0x4f, 0xea, 0x11, 0x0b, 0xda, 0x06, 0x55, 0x55, 0x35, 0x3d, 0x92, 0xf4, 0x6f, 0x94, 0x30, 0xa7, 0xe0, 0x1c, 0x22, 0x1e, 0xf8, 0x47, 0x90, 0xda, 0xbd, 0xbe, 0x0b, 0x7a, 0xe4, 0x98, 0xff, 0x3a, 0xa3, 0x76, 0x89, 0xb5, 0x97, 0x73, 0xd9, 0x1b, 0x45, 0xf1, 0xe9, 0x6e, 0x82, 0xb2, 0x7a, 0x33, 0x90, 0xd9, 0xe4, 0x01],\n                ],\n            }\n            ,\n        },\n    ],\n    output: [\n        TxOut {\n            value: 25000000 SAT,\n            script_pubkey: Script(OP_PUSHNUM_1 OP_PUSHBYTES_32 7b40f5890a1f8efbfdabbce9b18a7b09a06c3e5c3512a7a5d278a2e018d6d242),\n        },\n        TxOut {\n            value: 4990000 SAT,\n            script_pubkey: Script(OP_PUSHNUM_1 OP_PUSHBYTES_32 0b46066a4e883852d96b61f1c621fd69dbaf9c59236cfaade7daf8eac5304d57),\n        },\n    ],\n}\nRaw Transaction: 0200000000010200000000000000000000000000000000000000000000000000000000000000000000000000fdffffff00000000000000000000000000000000000000000000000000000000000000000100000000fdffffff0240787d01000000002251207b40f5890a1f8efbfdabbce9b18a7b09a06c3e5c3512a7a5d278a2e018d6d24230244c00000000002251200b46066a4e883852d96b61f1c621fd69dbaf9c59236cfaade7daf8eac5304d570141565a4248e1a047c629e4445b216dabaf2b784ac05ba0b359c870e9121c06765619e57298114c989005ea6b220e8d93c44a51aedf676d721abba1d9538be6dbc00101412d3bd1fd04d68ab0092d12c74f4fea110bda065555353d92f46f9430a7e01c221ef84790dabdbe0b7ae498ff3aa37689b59773d91b45f1e96e82b27a3390d9e40100000000\n",
    "Transaction Details: Transaction {\n    version: Version(\n        2,\n    ),\n    lock_time: 0 blocks,\n    input: [\n        TxIn {\n            previous_output: OutPoint {\n                txid: 0000000000000000000000000000000000000000000000000000000000000000,\n                vout: 0,\n            },\n            script_sig: Script(),\n            sequence: Sequence(0xfffffffd),\n            witness: Witness: {\n                indices: 1,\n                indices_start: 66,\n                witnesses: [\n                    [0xef, 0xe0, 0xd8, 0x73, 0x8c, 0xfd, 0x81, 0xf9, 0x73, 0x1f, 0x66, 0xf3, 0x5d, 0xd0, 0xf8, 0x0f, 0xea, 0xaf, 0x5e, 0x6f, 0x70, 0x0e, 0x38, 0x19, 0x4e, 0xcc, 0x78, 0x4a, 0x08, 0xb3, 0x20, 0xd7, 0x12, 0x77, 0x6c, 0x46, 0x3d, 0x9e, 0x42, 0xd1, 0x8a, 0xfc, 0xe9, 0xba, 0x8b, 0x94, 0xb2, 0x46, 0xc3, 0xeb, 0xad, 0xc4, 0x47, 0x92, 0xc3, 0x8e, 0x49, 0x6c, 0xc9, 0xce, 0x25, 0xdf, 0xcc, 0x4e, 0x01],\n                ],\n            }\n            ,\n        },\n        TxIn {\n            previous_output: OutPoint {\n                txid: 0000000000000000000000000000000000000000000000000000000000000000,\n                vout: 1,\n            },\n            script_sig: Script(),\n            sequence: Sequence(0xfffffffd),\n            witness: Witness: {\n                indices: 1,\n                indices_start: 66,\n                witnesses: [\n                    [0x0e, 0x69, 0xf6, 0x71, 0x7e, 0x5f, 0xa1, 0xa1, 0x83, 0xf2, 0x6e, 0x20, 0xb1, 0x2d, 0x3c, 0x26, 0x11, 0x2b, 0x52, 0xf0, 0xfa, 0xeb, 0x05, 0x04, 0xfc, 0xac, 0x91, 0x19, 0x9e, 0xd7, 0x17, 0xc1, 0xa6, 0x4d, 0x53, 0xa8, 0x3e, 0xa8, 0x4c, 0xe7, 0x96, 0x3c, 0xb7, 0x4e, 0xe4, 0x83, 0x7f, 0x43, 0x5e, 0xe3, 0x9b, 0x46, 0x29, 0xca, 0xba, 0xc9, 0x61, 0xec, 0xbe, 0x0f, 0x73, 0x12, 0xdd, 0x9f, 0x01],\n                ],\n            }\n            ,\n        },\n    ],\n    output: [\n        TxOut {\n            value: 25000000 SAT,\n            script_pubkey: Script(OP_PUSHNUM_1 OP_PUSHBYTES_32 7b40f5890a1f8efbfdabbce9b18a7b09a06c3e5c3512a7a5d278a2e018d6d242),\n        },\n        TxOut {\n            value: 4990000 SAT,\n            script_pubkey: Script(OP_PUSHNUM_1 OP_PUSHBYTES_32 0b46066a4e883852d96b61f1c621fd69dbaf9c59236cfaade7daf8eac5304d57),\n        },\n    ],\n}\nRaw Transaction: 0200000000010200000000000000000000000000000000000000000000000000000000000000000000000000fdffffff00000000000000000000000000000000000000000000000000000000000000000100000000fdffffff0240787d01000000002251207b40f5890a1f8efbfdabbce9b18a7b09a06c3e5c3512a7a5d278a2e018d6d24230244c00000000002251200b46066a4e883852d96b61f1c621fd69dbaf9c59236cfaade7daf8eac5304d570141efe0d8738cfd81f9731f66f35dd0f80feaaf5e6f700e38194ecc784a08b320d712776c463d9e42d18afce9ba8b94b246c3ebadc44792c38e496cc9ce25dfcc4e0101410e69f6717e5fa1a183f26e20b12d3c26112b52f0faeb0504fcac91199ed717c1a64d53a83ea84ce7963cb74ee4837f435ee39b4629cabac961ecbe0f7312dd9f0100000000\n",
    "Transaction Details: Transaction {\n    version: Version(\n        2,\n    ),\n    lock_time: 0 blocks,\n    input: [\n        TxIn {\n            previous_output: OutPoint {\n                txid: 0000000000000000000000000000000000000000000000000000000000000000,\n                vout: 0,\n            },\n            script_sig: Script(),\n            sequence: Sequence(0xfffffffd),\n            witness: Witness: {\n                indices: 1,\n                indices_start: 66,\n                witnesses: [\n                    [0x84, 0x86, 0xea, 0xff, 0x33, 0xa0, 0xd5, 0xae, 0xdd, 0x24, 0x76, 0xeb, 0x9e, 0x59, 0x07, 0xf8, 0xd5, 0x32, 0x9c, 0x88, 0x5b, 0xf6, 0xfd, 0x54, 0xb4, 0x0a, 0xfd, 0x40, 0x2b, 0x73, 0xd2, 0x94, 0x03, 0x9f, 0x4e, 0xb8, 0xa9, 0xf3, 0xbf, 0x77, 0x1a, 0x5d, 0x79, 0x7e, 0x9b, 0x64, 0x6f, 0x56, 0x70, 0x8c, 0x67, 0x6e, 0x74, 0x82, 0x3d, 0x41, 0xb0, 0xd2, 0xff, 0x7e, 0xd7, 0x5b, 0x18, 0x25, 0x01],\n                ],\n            }\n            ,\n        },\n        TxIn {\n            previous_output: OutPoint {\n                txid: 0000000000000000000000000000000000000000000000000000000000000000,\n                vout: 1,\n            },\n            script_sig: Script(),\n            sequence: Sequence(0xfffffffd),\n            witness: Witness: {\n                indices: 1,\n                indices_start: 66,\n                witnesses: [\n                    [0xdb, 0xfc, 0x44, 0xbf, 0x92, 0xa7, 0x9a, 0xf1, 0x81, 0x27, 0x33, 0xad, 0x9c, 0x15, 0x66, 0xc0, 0xb9, 0x0b, 0xec, 0x50, 0x0e, 0xf4, 0xfe, 0x2c, 0xf2, 0x05, 0x36, 0x42, 0x53, 0xc6, 0x79, 0x37, 0x43, 0xba, 0xe5, 0xee, 0x34, 0xca, 0x46, 0x5b, 0x94, 0x0c, 0xc6, 0xaf, 0x9f, 0x0e, 0xfe, 0xcf, 0x48, 0x9d, 0xdd, 0x7b, 0x03, 0x12, 0x94, 0x15, 0x67, 0xfb, 0xaf, 0xf8, 0x9b, 0xb8, 0x16, 0x6e, 0x01],\n                ],\n            }\n            ,\n        },\n    ],\n    output: [\n        TxOut {\n            value: 25000000 SAT,\n            script_pubkey: Script(OP_PUSHNUM_1 OP_PUSHBYTES_32 7b40f5890a1f8efbfdabbce9b18a7b09a06c3e5c3512a7a5d278a2e018d6d242),\n        },\n        TxOut {\n            value: 4990000 SAT,\n            script_pubkey: Script(OP_PUSHNUM_1 OP_PUSHBYTES_32 0b46066a4e883852d96b61f1c621fd69dbaf9c59236cfaade7daf8eac5304d57),\n        },\n    ],\n}\nRaw Transaction: 0200000000010200000000000000000000000000000000000000000000000000000000000000000000000000fdffffff00000000000000000000000000000000000000000000000000000000000000000100000000fdffffff0240787d01000000002251207b40f5890a1f8efbfdabbce9b18a7b09a06c3e5c3512a7a5d278a2e018d6d24230244c00000000002251200b46066a4e883852d96b61f1c621fd69dbaf9c59236cfaade7daf8eac5304d5701418486eaff33a0d5aedd2476eb9e5907f8d5329c885bf6fd54b40afd402b73d294039f4eb8a9f3bf771a5d797e9b646f56708c676e74823d41b0d2ff7ed75b1825010141dbfc44bf92a79af1812733ad9c1566c0b90bec500ef4fe2cf205364253c6793743bae5ee34ca465b940cc6af9f0efecf489ddd7b0312941567fbaff89bb8166e0100000000\n",
    "Transaction Details: Transaction {\n    version: Version(\n        2,\n    ),\n    lock_time: 0 blocks,\n    input: [\n        TxIn {\n            previous_output: OutPoint {\n                txid: 0000000000000000000000000000000000000000000000000000000000000000,\n                vout: 0,\n            },\n            script_sig: Script(),\n            sequence: Sequence(0xfffffffd),\n            witness: Witness: {\n                indices: 1,\n                indices_start: 66,\n                witnesses: [\n                    [0xf7, 0xc4, 0xdb, 0x17, 0x3b, 0x42, 0x63, 0xd5, 0xdd, 0xa6, 0x39, 0x8f, 0x58, 0x0c, 0x3c, 0xb6, 0xea, 0x21, 0x4b, 0xc9, 0xcd, 0x00, 0xdf, 0x4b, 0xc9, 0x88, 0x68, 0x00, 0xfe, 0x7f, 0xe6, 0xc6, 0x5a, 0x1f, 0xbe, 0x16, 0x96, 0xcd, 0xed, 0xcd, 0x41, 0x26, 0xcb, 0x4e, 0x38, 0xe2, 0xbf, 0xed, 0x65, 0x63, 0x48, 0x82, 0xbb, 0x4d, 0x08, 0x90, 0x24, 0x86, 0x90, 0x6d, 0xb1, 0x8a, 0xee, 0x16, 0x01],\n                ],\n            }\n            ,\n        },\n        TxIn {\n            previous_output: OutPoint {\n                txid: 0000000000000000000000000000000000000000000000000000000000000000,\n                vout: 1,\n            },\n            script_sig: Script(),\n            sequence: Sequence(0xfffffffd),\n            witness: Witness: {\n                indices: 1,\n                indices_start: 66,\n                witnesses: [\n                    [0xa2, 0xce, 0x6b, 0x17, 0x13, 0x0c, 0xea, 0xe3, 0xef, 0x87, 0x27, 0x77, 0xa2, 0xc7, 0x1c, 0xfa, 0x7c, 0x55, 0xe4, 0xda, 0x3a, 0x68, 0x2f, 0x49, 0x71, 0x2d, 0xfc, 0xd8, 0x53, 0x0a, 0xc3, 0xa9, 0x82, 0x20, 0x85, 0xe3, 0x0f, 0xd9, 0xd9, 0x16, 0x0b, 0x71, 0xd7, 0x16, 0x02, 0xbc, 0xba, 0x10, 0x6a, 0xd7, 0x29, 0x49, 0xf7, 0x59, 0x4f, 0xb7, 0x84, 0x48, 0xfd, 0x9c, 0x9f, 0xd6, 0x5b, 0x3a, 0x01],\n                ],\n            }\n            ,\n        },\n    ],\n    output: [\n        TxOut {\n            value: 25000000 SAT,\n            script_pubkey: Script(OP_PUSHNUM_1 OP_PUSHBYTES_32 7b40f5890a1f8efbfdabbce9b18a7b09a06c3e5c3512a7a5d278a2e018d6d242),\n        },\n        TxOut {\n            value: 4990000 SAT,\n            script_pubkey: Script(OP_PUSHNUM_1 OP_PUSHBYTES_32 0b46066a4e883852d96b61f1c621fd69dbaf9c59236cfaade7daf8eac5304d57),\n        },\n    ],\n}\nRaw Transaction: 0200000000010200000000000000000000000000000000000000000000000000000000000000000000000000fdffffff00000000000000000000000000000000000000000000000000000000000000000100000000fdffffff0240787d01000000002251207b40f5890a1f8efbfdabbce9b18a7b09a06c3e5c3512a7a5d278a2e018d6d24230244c00000000002251200b46066a4e883852d96b61f1c621fd69dbaf9c59236cfaade7daf8eac5304d570141f7c4db173b4263d5dda6398f580c3cb6ea214bc9cd00df4bc9886800fe7fe6c65a1fbe1696cdedcd4126cb4e38e2bfed65634882bb4d08902486906db18aee16010141a2ce6b17130ceae3ef872777a2c71cfa7c55e4da3a682f49712dfcd8530ac3a9822085e30fd9d9160b71d71602bcba106ad72949f7594fb78448fd9c9fd65b3a0100000000\n",
    "Transaction Details: Transaction {\n    version: Version(\n        2,\n    ),\n    lock_time: 0 blocks,\n    input: [\n        TxIn {\n            previous_output: OutPoint {\n                txid: 0000000000000000000000000000000000000000000000000000000000000000,\n                vout: 0,\n            },\n            script_sig: Script(),\n            sequence: Sequence(0xfffffffd),\n            witness: Witness: {\n                indices: 1,\n                indices_start: 66,\n                witnesses: [\n                    [0xa7, 0x21, 0x83, 0x90, 0xc5, 0xf3, 0xb1, 0xa8, 0x5c, 0x52, 0x28, 0x8a, 0xaa, 0xa6, 0xfa, 0xa7, 0x41, 0xc2, 0xc4, 0xc7, 0xe9, 0xe6, 0xc3, 0x7a, 0xe7, 0x4a, 0x2a, 0x27, 0x1b, 0x2b, 0xbb, 0xd8, 0xc2, 0x04, 0xe9, 0x6d, 0x45, 0x26, 0xd4, 0x6e, 0x23, 0x1e, 0x96, 0x1a, 0x9b, 0xcf, 0x5a, 0xfe, 0xd2, 0xe1, 0x66, 0x85, 0x52, 0x97, 0xda, 0x67, 0x02, 0x8e, 0x19, 0x24, 0x67, 0xfc, 0xa0, 0x79, 0x01],\n                ],\n            }\n            ,\n        },\n        TxIn {\n            previous_output: OutPoint {\n                txid: 0000000000000000000000000000000000000000000000000000000000000000,\n                vout: 1,\n            },\n            script_sig: Script(),\n            sequence: Sequence(0xfffffffd),\n            witness: Witness: {\n                indices: 1,\n                indices_start: 66,\n                witnesses: [\n                    [0x11, 0xc3, 0xe5, 0x32, 0xcd, 0xb2, 0x5c, 0x4c, 0xcf, 0x29, 0x0f, 0xf2, 0xe2, 0xfd, 0x15, 0x76, 0x8b, 0xa5, 0xff, 0xf7, 0x54, 0x85, 0xb4, 0xa4, 0xe7, 0x27, 0xbe, 0xff, 0xcf, 0x3b, 0xe9, 0x56, 0x7f, 0x0c, 0xef, 0x6b, 0xab, 0x9d, 0x26, 0xdc, 0xd6, 0x76, 0xb5, 0x9b, 0xf6, 0x10, 0xb8, 0xd3, 0x9a, 0xb5, 0x17, 0x81, 0x6c, 0xb9, 0x0a, 0x1f, 0xf7, 0xec, 0x0c, 0x74, 0x76, 0x28, 0xa6, 0x39, 0x01],\n                ],\n            }\n            ,\n        },\n    ],\n    output: [\n        TxOut {\n            value: 25000000 SAT,\n            script_pubkey: Script(OP_PUSHNUM_1 OP_PUSHBYTES_32 7b40f5890a1f8efbfdabbce9b18a7b09a06c3e5c3512a7a5d278a2e018d6d242),\n        },\n        TxOut {\n            value: 4990000 SAT,\n            script_pubkey: Script(OP_PUSHNUM_1 OP_PUSHBYTES_32 0b46066a4e883852d96b61f1c621fd69dbaf9c59236cfaade7daf8eac5304d57),\n        },\n    ],\n}\nRaw Transaction: 0200000000010200000000000000000000000000000000000000000000000000000000000000000000000000fdffffff00000000000000000000000000000000000000000000000000000000000000000100000000fdffffff0240787d01000000002251207b40f5890a1f8efbfdabbce9b18a7b09a06c3e5c3512a7a5d278a2e018d6d24230244c00000000002251200b46066a4e883852d96b61f1c621fd69dbaf9c59236cfaade7daf8eac5304d570141a7218390c5f3b1a85c52288aaaa6faa741c2c4c7e9e6c37ae74a2a271b2bbbd8c204e96d4526d46e231e961a9bcf5afed2e166855297da67028e192467fca07901014111c3e532cdb25c4ccf290ff2e2fd15768ba5fff75485b4a4e727beffcf3be9567f0cef6bab9d26dcd676b59bf610b8d39ab517816cb90a1ff7ec0c747628a6390100000000\n",
    "Transaction Details: Transaction {\n    version: Version(\n        2,\n    ),\n    lock_time: 0 blocks,\n    input: [\n        TxIn {\n            previous_output: OutPoint {\n                txid: 0000000000000000000000000000000000000000000000000000000000000000,\n                vout: 0,\n            },\n            script_sig: Script(),\n            sequence: Sequence(0xfffffffd),\n            witness: Witness: {\n                indices: 1,\n                indices_start: 66,\n                witnesses: [\n                    [0xae, 0x62, 0x1c, 0x44, 0x8b, 0xd3, 0x5c, 0x2f, 0x3f, 0x03, 0x9f, 0x04, 0x3c, 0x7d, 0xfb, 0x5b, 0x44, 0xba, 0xd2, 0xfd, 0x2d, 0xd5, 0xc6, 0xc7, 0xa2, 0x3b, 0x6c, 0xeb, 0x08, 0x5c, 0xad, 0xb3, 0x99, 0x5a, 0x30, 0xa2, 0x76, 0x8f, 0x55, 0x59, 0xef, 0xaa, 0xd0, 0x6a, 0x9d, 0xa0, 0x09, 0x8c, 0x0e, 0x9f, 0x45, 0xfe, 0x44, 0x9e, 0x9c, 0x58, 0xd6, 0xf6, 0x35, 0x38, 0xa8, 0xdf, 0x46, 0x6d, 0x01],\n                ],\n            }\n            ,\n        },\n        TxIn {\n            previous_output: OutPoint {\n                txid: 0000000000000000000000000000000000000000000000000000000000000000,\n                vout: 1,\n            },\n            script_sig: Script(),\n            sequence: Sequence(0xfffffffd),\n            witness: Witness: {\n                indices: 1,\n                indices_start: 66,\n                witnesses: [\n                    [0x63, 0x4e, 0x72, 0x9e, 0x02, 0xb9, 0x12, 0xc1, 0xd5, 0x2c, 0x7c, 0x22, 0x55, 0xf9, 0x60, 0x98, 0xc8, 0xa1, 0xed, 0xc2, 0xbe, 0x72, 0x09, 0x3e, 0x5a, 0x46, 0xfa, 0x21, 0xda, 0xb0, 0x8c, 0x5d, 0x75, 0xcb, 0x39, 0xc0, 0xdd, 0xa7, 0x23, 0xb0, 0x8c, 0x76, 0x86, 0x99, 0xbb, 0xb5, 0x21, 0xb2, 0xee, 0x65, 0x4b, 0x36, 0x0d, 0x76, 0x33, 0xae, 0xd2, 0x7d, 0x7c, 0xc2, 0xf3, 0xec, 0xbd, 0xa6, 0x01],\n                ],\n            }\n            ,\n        },\n    ],\n    output: [\n        TxOut {\n            value: 25000000 SAT,\n            script_pubkey: Script(OP_PUSHNUM_1 OP_PUSHBYTES_32 7b40f5890a1f8efbfdabbce9b18a7b09a06c3e5c3512a7a5d278a2e018d6d242),\n        },\n        TxOut {\n            value: 4990000 SAT,\n            script_pubkey: Script(OP_PUSHNUM_1 OP_PUSHBYTES_32 0b46066a4e883852d96b61f1c621fd69dbaf9c59236cfaade7daf8eac5304d57),\n        },\n    ],\n}\nRaw Transaction: 0200000000010200000000000000000000000000000000000000000000000000000000000000000000000000fdffffff00000000000000000000000000000000000000000000000000000000000000000100000000fdffffff0240787d01000000002251207b40f5890a1f8efbfdabbce9b18a7b09a06c3e5c3512a7a5d278a2e018d6d24230244c00000000002251200b46066a4e883852d96b61f1c621fd69dbaf9c59236cfaade7daf8eac5304d570141ae621c448bd35c2f3f039f043c7dfb5b44bad2fd2dd5c6c7a23b6ceb085cadb3995a30a2768f5559efaad06a9da0098c0e9f45fe449e9c58d6f63538a8df466d010141634e729e02b912c1d52c7c2255f96098c8a1edc2be72093e5a46fa21dab08c5d75cb39c0dda723b08c768699bbb521b2ee654b360d7633aed27d7cc2f3ecbda60100000000\n",
    "Transaction Details: Transaction {\n    version: Version(\n        2,\n    ),\n    lock_time: 0 blocks,\n    input: [\n        TxIn {\n            previous_output: OutPoint {\n                txid: 0000000000000000000000000000000000000000000000000000000000000000,\n                vout: 0,\n            },\n            script_sig: Script(),\n            sequence: Sequence(0xfffffffd),\n            witness: Witness: {\n                indices: 1,\n                indices_start: 66,\n                witnesses: [\n                    [0xf2, 0x3d, 0xe8, 0xef, 0x30, 0x89, 0xda, 0xbf, 0x71, 0x9c, 0xad, 0x33, 0x04, 0x8e, 0x86, 0xb0, 0x59, 0x84, 0x0b, 0x25, 0x64, 0x7d, 0x2f, 0xe5, 0xd4, 0x15, 0x5c, 0xe8, 0xc7, 0x17, 0x93, 0xe5, 0xdf, 0x46, 0x31, 0x35, 0xc5, 0xc6, 0xad, 0xc5, 0x38, 0xd6, 0xd2, 0x6f, 0x3d, 0x9e, 0x99, 0xda, 0xd3, 0xd7, 0xc2, 0x57, 0x20, 0xc2, 0x1a, 0x0b, 0xfe, 0x75, 0xf1, 0xc2, 0x7a, 0x90, 0xaa, 0x49, 0x01],\n                ],\n            }\n            ,\n        },\n        TxIn {\n            previous_output: OutPoint {\n                txid: 0000000000000000000000000000000000000000000000000000000000000000,\n                vout: 1,\n            },\n            script_sig: Script(),\n            sequence: Sequence(0xfffffffd),\n            witness: Witness: {\n                indices: 1,\n                indices_start: 66,\n                witnesses: [\n                    [0x52, 0x73, 0x7d, 0x2c, 0x88, 0x64, 0x0b, 0xce, 0x21, 0x1d, 0x92, 0xd7, 0xe6, 0x7e, 0xa9, 0x14, 0xc9, 0xb0, 0x13, 0x43, 0x70, 0x75, 0x7e, 0x47, 0x77, 0x03, 0xce, 0x90, 0xed, 0xe0, 0x3d, 0x5d, 0x96, 0xf0, 0x0d, 0x53, 0xce, 0x8c, 0x87, 0xdb, 0xef, 0x90, 0xa0, 0xfe, 0x6a, 0x65, 0xfd, 0x3d, 0x58, 0x0a, 0x09, 0x1c, 0xac, 0x19, 0x79, 0x26, 0x0d, 0x9a, 0x4c, 0x51, 0x34, 0xe2, 0x3f, 0x4c, 0x01],\n                ],\n            }\n            ,\n        },\n    ],\n    output: [\n        TxOut {\n            value: 25000000 SAT,\n            script_pubkey: Script(OP_PUSHNUM_1 OP_PUSHBYTES_32 7b40f5890a1f8efbfdabbce9b18a7b09a06c3e5c3512a7a5d278a2e018d6d242),\n        },\n        TxOut {\n            value: 4990000 SAT,\n            script_pubkey: Script(OP_PUSHNUM_1 OP_PUSHBYTES_32 0b46066a4e883852d96b61f1c621fd69dbaf9c59236cfaade7daf8eac5304d57),\n        },\n    ],\n}\nRaw Transaction: 0200000000010200000000000000000000000000000000000000000000000000000000000000000000000000fdffffff00000000000000000000000000000000000000000000000000000000000000000100000000fdffffff0240787d01000000002251207b40f5890a1f8efbfdabbce9b18a7b09a06c3e5c3512a7a5d278a2e018d6d24230244c00000000002251200b46066a4e883852d96b61f1c621fd69dbaf9c59236cfaade7daf8eac5304d570141f23de8ef3089dabf719cad33048e86b059840b25647d2fe5d4155ce8c71793e5df463135c5c6adc538d6d26f3d9e99dad3d7c25720c21a0bfe75f1c27a90aa4901014152737d2c88640bce211d92d7e67ea914c9b0134370757e477703ce90ede03d5d96f00d53ce8c87dbef90a0fe6a65fd3d580a091cac1979260d9a4c5134e23f4c0100000000\n",
    "Transaction Details: Transaction {\n    version: Version(\n        2,\n    ),\n    lock_time: 0 blocks,\n    input: [\n        TxIn {\n            previous_output: OutPoint {\n                txid: 0000000000000000000000000000000000000000000000000000000000000000,\n                vout: 0,\n            },\n            script_sig: Script(),\n            sequence: Sequence(0xfffffffd),\n            witness: Witness: {\n                indices: 1,\n                indices_start: 66,\n                witnesses: [\n                    [0x23, 0x9b, 0x20, 0x75, 0x6e, 0x4f, 0x07, 0x51, 0xdc, 0xa9, 0xa8, 0x40, 0x0f, 0x80, 0xb6, 0xbc, 0xdd, 0x49, 0x39, 0xe0, 0x73, 0x9e, 0x20, 0xb1, 0x53, 0xba, 0xc7, 0x1e, 0xda, 0x0f, 0x58, 0x7d, 0x86, 0x51, 0xda, 0x97, 0xc4, 0x37, 0xf1, 0x93, 0x81, 0xbf, 0xfe, 0xd9, 0xe2, 0x36, 0x62, 0x4e, 0xa9, 0xf3, 0xa0, 0x3c, 0xad, 0x3e, 0xe9, 0x52, 0xbe, 0x91, 0x96, 0x49, 0x53, 0xc4, 0xe8, 0x99, 0x01],\n                ],\n            }\n            ,\n        },\n        TxIn {\n            previous_output: OutPoint {\n                txid: 0000000000000000000000000000000000000000000000000000000000000000,\n                vout: 1,\n            },\n            script_sig: Script(),\n            sequence: Sequence(0xfffffffd),\n            witness: Witness: {\n                indices: 1,\n                indices_start: 66,\n                witnesses: [\n                    [0xc8, 0x97, 0xb3, 0xc8, 0xb7, 0x47, 0xa0, 0x08, 0xae, 0xde, 0x02, 0xfb, 0xad, 0xa2, 0x56, 0xee, 0xe9, 0xcd, 0x99, 0xab, 0xf3, 0x4b, 0x1e, 0xaa, 0x57, 0x6b, 0x49, 0x59, 0xb0, 0x2f, 0xa3, 0x5a, 0x59, 0x58, 0x48, 0x26, 0x98, 0x59, 0xaa, 0x88, 0xac, 0x9d, 0x1b, 0xd7, 0x6e, 0x68, 0x0b, 0x6a, 0xf0, 0xfd, 0x10, 0xc8, 0xa3, 0x47, 0x05, 0xde, 0x4f, 0xc9, 0xb8, 0xd8, 0x1b, 0xaf, 0x9c, 0xc6, 0x01],\n                ],\n            }\n            ,\n        },\n    ],\n    output: [\n        TxOut {\n            value: 25000000 SAT,\n            script_pubkey: Script(OP_PUSHNUM_1 OP_PUSHBYTES_32 7b40f5890a1f8efbfdabbce9b18a7b09a06c3e5c3512a7a5d278a2e018d6d242),\n        },\n        TxOut {\n            value: 4990000 SAT,\n            script_pubkey: Script(OP_PUSHNUM_1 OP_PUSHBYTES_32 0b46066a4e883852d96b61f1c621fd69dbaf9c59236cfaade7daf8eac5304d57),\n        },\n    ],\n}\nRaw Transaction: 0200000000010200000000000000000000000000000000000000000000000000000000000000000000000000fdffffff00000000000000000000000000000000000000000000000000000000000000000100000000fdffffff0240787d01000000002251207b40f5890a1f8efbfdabbce9b18a7b09a06c3e5c3512a7a5d278a2e018d6d24230244c00000000002251200b46066a4e883852d96b61f1c621fd69dbaf9c59236cfaade7daf8eac5304d570141239b20756e4f0751dca9a8400f80b6bcdd4939e0739e20b153bac71eda0f587d8651da97c437f19381bffed9e236624ea9f3a03cad3ee952be91964953c4e899010141c897b3c8b747a008aede02fbada256eee9cd99abf34b1eaa576b4959b02fa35a595848269859aa88ac9d1bd76e680b6af0fd10c8a34705de4fc9b8d81baf9cc60100000000\n",
    "Transaction Details: Transaction {\n    version: Version(\n        2,\n    ),\n    lock_time: 0 blocks,\n    input: [\n        TxIn {\n            previous_output: OutPoint {\n                txid: 0000000000000000000000000000000000000000000000000000000000000000,\n                vout: 0,\n            },\n            script_sig: Script(),\n            sequence: Sequence(0xfffffffd),\n            witness: Witness: {\n                indices: 1,\n                indices_start: 66,\n                witnesses: [\n                    [0x39, 0x05, 0xe0, 0x6f, 0x83, 0x20, 0x87, 0x1d, 0xd9, 0x2f, 0x82, 0x6b, 0x0e, 0xa4, 0x03, 0x25, 0x36, 0x4d, 0xfe, 0x32, 0x82, 0x4c, 0xe3, 0xff, 0x0e, 0x92, 0x62, 0xb3, 0x20, 0x99, 0x5c, 0x7b, 0xf1, 0x2c, 0xe3, 0x1b, 0x00, 0x0a, 0x8e, 0xf5, 0x33, 0xe9, 0xc3, 0xa8, 0x2e, 0x0e, 0xf4, 0x60, 0x67, 0x9d, 0x25, 0xab, 0xdd, 0x2f, 0xee, 0x72, 0x3d, 0x5d, 0x94, 0x6e, 0xca, 0xb7, 0xe6, 0x74, 0x01],\n                ],\n            }\n            ,\n        },\n        TxIn {\n            previous_output: OutPoint {\n                txid: 0000000000000000000000000000000000000000000000000000000000000000,\n                vout: 1,\n            },\n            script_sig: Script(),\n            sequence: Sequence(0xfffffffd),\n            witness: Witness: {\n                indices: 1,\n                indices_start: 66,\n                witnesses: [\n                    [0x6e, 0x16, 0xd8, 0xe7, 0xac, 0x4b, 0x5b, 0x72, 0x1a, 0xcf, 0x18, 0x92, 0xf5, 0x38, 0xfd, 0x11, 0xeb, 0xd5, 0x5e, 0xea, 0x17, 0xb8, 0xbd, 0xea, 0x7b, 0x65, 0x1b, 0x22, 0x77, 0xf2, 0x18, 0x61, 0x69, 0x6b, 0xf8, 0xec, 0xc1, 0x20, 0x95, 0x84, 0xa9, 0xff, 0x45, 0xc0, 0x5b, 0x15, 0xc8, 0xc6, 0x2a, 0x47, 0xc0, 0x09, 0x39, 0x28, 0xb6, 0x1c, 0xed, 0xaf, 0x33, 0xf2, 0xc2, 0xe9, 0x3c, 0x1a, 0x01],\n                ],\n            }\n            ,\n        },\n    ],\n    output: [\n        TxOut {\n            value: 25000000 SAT,\n            script_pubkey: Script(OP_PUSHNUM_1 OP_PUSHBYTES_32 7b40f5890a1f8efbfdabbce9b18a7b09a06c3e5c3512a7a5d278a2e018d6d242),\n        },\n        TxOut {\n            value: 4990000 SAT,\n            script_pubkey: Script(OP_PUSHNUM_1 OP_PUSHBYTES_32 0b46066a4e883852d96b61f1c621fd69dbaf9c59236cfaade7daf8eac5304d57),\n        },\n    ],\n}\nRaw Transaction: 0200000000010200000000000000000000000000000000000000000000000000000000000000000000000000fdffffff00000000000000000000000000000000000000000000000000000000000000000100000000fdffffff0240787d01000000002251207b40f5890a1f8efbfdabbce9b18a7b09a06c3e5c3512a7a5d278a2e018d6d24230244c00000000002251200b46066a4e883852d96b61f1c621fd69dbaf9c59236cfaade7daf8eac5304d5701413905e06f8320871dd92f826b0ea40325364dfe32824ce3ff0e9262b320995c7bf12ce31b000a8ef533e9c3a82e0ef460679d25abdd2fee723d5d946ecab7e6740101416e16d8e7ac4b5b721acf1892f538fd11ebd55eea17b8bdea7b651b2277f21861696bf8ecc1209584a9ff45c05b15c8c62a47c0093928b61cedaf33f2c2e93c1a0100000000\n",
    "Transaction Details: Transaction {\n    version: Version(\n        2,\n    ),\n    lock_time: 0 blocks,\n    input: [\n        TxIn {\n            previous_output: OutPoint {\n                txid: 0000000000000000000000000000000000000000000000000000000000000000,\n                vout: 0,\n            },\n            script_sig: Script(),\n            sequence: Sequence(0xfffffffd),\n            witness: Witness: {\n                indices: 1,\n                indices_start: 66,\n                witnesses: [\n                    [0x50, 0x7a, 0x6a, 0x90, 0xaa, 0x88, 0xf0, 0xf8, 0x64, 0x0e, 0xaf, 0x78, 0xd4, 0x40, 0x39, 0x11, 0x66, 0xa3, 0xd4, 0x0f, 0x44, 0xc1, 0x45, 0x47, 0x88, 0x34, 0x0a, 0xab, 0x6f, 0xb2, 0xf9, 0x27, 0x66, 0xc6, 0xb3, 0xaa, 0x35, 0x98, 0x9e, 0xea, 0x16, 0x9c, 0x6a, 0xd6, 0x13, 0x13, 0x7c, 0x37, 0xe6, 0x60, 0x16, 0xe7, 0xa4, 0x26, 0xd9, 0x75, 0x98, 0x68, 0xcf, 0x57, 0xb2, 0x1c, 0x78, 0x0e, 0x01],\n                ],\n            }\n            ,\n        },\n        TxIn {\n            previous_output: OutPoint {\n                txid: 0000000000000000000000000000000000000000000000000000000000000000,\n                vout: 1,\n            },\n            script_sig: Script(),\n            sequence: Sequence(0xfffffffd),\n            witness: Witness: {\n                indices: 1,\n                indices_start: 66,\n                witnesses: [\n                    [0xf9, 0x53, 0x8e, 0xc5, 0x55, 0x94, 0x59, 0xa2, 0xc1, 0x74, 0x69, 0xa8, 0xb7, 0x93, 0xf3, 0x7e, 0xfc, 0x6f, 0x29, 0xed, 0x67, 0xab, 0x9d, 0xf8, 0x7d, 0xb2, 0x61, 0xeb, 0xac, 0x48, 0xe1, 0x98, 0x84, 0x26, 0x41, 0x77, 0x47, 0x93, 0x58, 0x8d, 0x26, 0xed, 0x4d, 0x65, 0xf6, 0x7d, 0x12, 0x40, 0x9b, 0xd9, 0x94, 0xb5, 0xa7, 0xd7, 0xdd, 0x9e, 0xad, 0xda, 0xae, 0x32, 0xae, 0x29, 0x48, 0xfa, 0x01],\n                ],\n            }\n            ,\n        },\n    ],\n    output: [\n        TxOut {\n            value: 25000000 SAT,\n            script_pubkey: Script(OP_PUSHNUM_1 OP_PUSHBYTES_32 7b40f5890a1f8efbfdabbce9b18a7b09a06c3e5c3512a7a5d278a2e018d6d242),\n        },\n        TxOut {\n            value: 4990000 SAT,\n            script_pubkey: Script(OP_PUSHNUM_1 OP_PUSHBYTES_32 0b46066a4e883852d96b61f1c621fd69dbaf9c59236cfaade7daf8eac5304d57),\n        },\n    ],\n}\nRaw Transaction: 0200000000010200000000000000000000000000000000000000000000000000000000000000000000000000fdffffff00000000000000000000000000000000000000000000000000000000000000000100000000fdffffff0240787d01000000002251207b40f5890a1f8efbfdabbce9b18a7b09a06c3e5c3512a7a5d278a2e018d6d24230244c00000000002251200b46066a4e883852d96b61f1c621fd69dbaf9c59236cfaade7daf8eac5304d570141507a6a90aa88f0f8640eaf78d440391166a3d40f44c1454788340aab6fb2f92766c6b3aa35989eea169c6ad613137c37e66016e7a426d9759868cf57b21c780e010141f9538ec5559459a2c17469a8b793f37efc6f29ed67ab9df87db261ebac48e198842641774793588d26ed4d65f67d12409bd994b5a7d7dd9eaddaae32ae2948fa0100000000\n"
  ]
}