PSBT Inputs: [
    Input {
        non_witness_utxo: None,
        witness_utxo: Some(
            TxOut {
                value: 20000000 SAT,
                script_pubkey: Script(OP_0 OP_PUSHBYTES_20 1bb9c891ac7c922ed7afcdd696be3b2feac74524),
            },
        ),
        partial_sigs: {
            PublicKey {
                compressed: true,
                inner: PublicKey(
                    c17a70ac7cfbb1a3f460a294eb7c996208c79d8a9b41c11b60083bbb47caf6efff6c72edd934e3c613c36fde6340d861ecafedd0ab6073237f141f0fdb75b3b3,
                ),
            }: Signature {
                signature: 3045022100dfac9791eaa4c7d56d8eded8cd787fad4eec9cb9786c825a1bb5d93747717e9b022020b8caefcf4c3a83bd34488957328ee7243238008f0c0279b06aa3c419eb9311,
                sighash_type: All,
            },
        },
        sighash_type: Some(
            PsbtSighashType {
                inner: 1,
            },
        ),
        redeem_script: Some(
            Script(OP_0 OP_PUSHBYTES_20 1bb9c891ac7c922ed7afcdd696be3b2feac74524),
        ),
        witness_script: None,
        bip32_derivation: {
            PublicKey(
                c17a70ac7cfbb1a3f460a294eb7c996208c79d8a9b41c11b60083bbb47caf6efff6c72edd934e3c613c36fde6340d861ecafedd0ab6073237f141f0fdb75b3b3,
            ): (
                0x9680603f,
                84'/0'/0'/0/0,
            ),
        },
        final_script_sig: None,
        final_script_witness: None,
        ripemd160_preimages: {},
        sha256_preimages: {},
        hash160_preimages: {},
        hash256_preimages: {},
        tap_key_sig: None,
        tap_script_sigs: {},
        tap_scripts: {},
        tap_key_origins: {},
        tap_internal_key: None,
        tap_merkle_root: None,
        proprietary: {},
        unknown: {},
    },
    Input {
        non_witness_utxo: None,
        witness_utxo: Some(
            TxOut {
                value: 10000000 SAT,
                script_pubkey: Script(OP_0 OP_PUSHBYTES_20 27a0e70732fbbdd50c3ef543d38c9bb9d6e8998d),
            },
        ),
        partial_sigs: {
            PublicKey {
                compressed: true,
                inner: PublicKey(
                    201698c2d460814bed6a71377a6c91bbce551deb4ea3250762e6387dacedc91e64d1465a7b84b08c3f173cfd04e000658c8330a80faf77eaa43ba85478a14531,
                ),
            }: Signature {
                signature: 3045022100bb8070033a4d5902bad65923bce5b583432daeec2b59636cdd6833aeb807aa9d02200d3c04811a3d1e4e91a3b515c24c71d61ac63dca30b0a3b1c5a452abd17b1903,
                sighash_type: All,
            },
        },
        sighash_type: Some(
            PsbtSighashType {
                inner: 1,
            },
        ),
        redeem_script: Some(
            Script(OP_0 OP_PUSHBYTES_20 27a0e70732fbbdd50c3ef543d38c9bb9d6e8998d),
        ),
        witness_script: None,
        bip32_derivation: {
            PublicKey(
                201698c2d460814bed6a71377a6c91bbce551deb4ea3250762e6387dacedc91e64d1465a7b84b08c3f173cfd04e000658c8330a80faf77eaa43ba85478a14531,
            ): (
                0x9680603f,
                84'/0'/0'/1/0,
            ),
        },
        final_script_sig: None,
        final_script_witness: None,
        ripemd160_preimages: {},
        sha256_preimages: {},
        hash160_preimages: {},
        hash256_preimages: {},
        tap_key_sig: None,
        tap_script_sigs: {},
        tap_scripts: {},
        tap_key_origins: {},
        tap_internal_key: None,
        tap_merkle_root: None,
        proprietary: {},
        unknown: {},
    },
]
Transaction Details: Transaction {
    version: Version(
        2,
    ),
    lock_time: 0 blocks,
    input: [
        TxIn {
            previous_output: OutPoint {
                txid: 0000000000000000000000000000000000000000000000000000000000000000,
                vout: 0,
            },
            script_sig: Script(),
            sequence: Sequence(0xfffffffd),
            witness: Witness: {
                indices: 2,
                indices_start: 107,
                witnesses: [
                    [0x30, 0x45, 0x02, 0x21, 0x00, 0xdf, 0xac, 0x97, 0x91, 0xea, 0xa4, 0xc7, 0xd5, 0x6d, 0x8e, 0xde, 0xd8, 0xcd, 0x78, 0x7f, 0xad, 0x4e, 0xec, 0x9c, 0xb9, 0x78, 0x6c, 0x82, 0x5a, 0x1b, 0xb5, 0xd9, 0x37, 0x47, 0x71, 0x7e, 0x9b, 0x02, 0x20, 0x20, 0xb8, 0xca, 0xef, 0xcf, 0x4c, 0x3a, 0x83, 0xbd, 0x34, 0x48, 0x89, 0x57, 0x32, 0x8e, 0xe7, 0x24, 0x32, 0x38, 0x00, 0x8f, 0x0c, 0x02, 0x79, 0xb0, 0x6a, 0xa3, 0xc4, 0x19, 0xeb, 0x93, 0x11, 0x01],
                    [0x03, 0xef, 0xf6, 0xca, 0x47, 0xbb, 0x3b, 0x08, 0x60, 0x1b, 0xc1, 0x41, 0x9b, 0x8a, 0x9d, 0xc7, 0x08, 0x62, 0x99, 0x7c, 0xeb, 0x94, 0xa2, 0x60, 0xf4, 0xa3, 0xb1, 0xfb, 0x7c, 0xac, 0x70, 0x7a, 0xc1],
                ],
            }
            ,
        },
        TxIn {
            previous_output: OutPoint {
                txid: 0000000000000000000000000000000000000000000000000000000000000000,
                vout: 1,
            },
            script_sig: Script(),
            sequence: Sequence(0xfffffffd),
            witness: Witness: {
                indices: 2,
                indices_start: 107,
                witnesses: [
                    [0x30, 0x45, 0x02, 0x21, 0x00, 0xbb, 0x80, 0x70, 0x03, 0x3a, 0x4d, 0x59, 0x02, 0xba, 0xd6, 0x59, 0x23, 0xbc, 0xe5, 0xb5, 0x83, 0x43, 0x2d, 0xae, 0xec, 0x2b, 0x59, 0x63, 0x6c, 0xdd, 0x68, 0x33, 0xae, 0xb8, 0x07, 0xaa, 0x9d, 0x02, 0x20, 0x0d, 0x3c, 0x04, 0x81, 0x1a, 0x3d, 0x1e, 0x4e, 0x91, 0xa3, 0xb5, 0x15, 0xc2, 0x4c, 0x71, 0xd6, 0x1a, 0xc6, 0x3d, 0xca, 0x30, 0xb0, 0xa3, 0xb1, 0xc5, 0xa4, 0x52, 0xab, 0xd1, 0x7b, 0x19, 0x03, 0x01],
                    [0x02, 0x1e, 0xc9, 0xed, 0xac, 0x7d, 0x38, 0xe6, 0x62, 0x07, 0x25, 0xa3, 0x4e, 0xeb, 0x1d, 0x55, 0xce, 0xbb, 0x91, 0x6c, 0x7a, 0x37, 0x71, 0x6a, 0xed, 0x4b, 0x81, 0x60, 0xd4, 0xc2, 0x98, 0x16, 0x20],
                ],
            }
            ,
        },
    ],
    output: [
        TxOut {
            value: 25000000 SAT,
            script_pubkey: Script(OP_0 OP_PUSHBYTES_20 f60834ef165253c571b11ce9fa74e46692fc5ec1),
        },
        TxOut {
            value: 4990000 SAT,
            script_pubkey: Script(OP_0 OP_PUSHBYTES_20 1cdeed53e022db47165bb1eb2b44b3168908bd22),
        },
    ],
}
Raw Transaction: 0200000000010200000000000000000000000000000000000000000000000000000000000000000000000000fdffffff00000000000000000000000000000000000000000000000000000000000000000100000000fdffffff0240787d0100000000160014f60834ef165253c571b11ce9fa74e46692fc5ec130244c00000000001600141cdeed53e022db47165bb1eb2b44b3168908bd2202483045022100dfac9791eaa4c7d56d8eded8cd787fad4eec9cb9786c825a1bb5d93747717e9b022020b8caefcf4c3a83bd34488957328ee7243238008f0c0279b06aa3c419eb9311012103eff6ca47bb3b08601bc1419b8a9dc70862997ceb94a260f4a3b1fb7cac707ac102483045022100bb8070033a4d5902bad65923bce5b583432daeec2b59636cdd6833aeb807aa9d02200d3c04811a3d1e4e91a3b515c24c71d61ac63dca30b0a3b1c5a452abd17b19030121021ec9edac7d38e6620725a34eeb1d55cebb916c7a37716aed4b8160d4c298162000000000
